S01D000048617264776172652050726F6A65637420436F64652E7372656347
S11300000C942A000C9447000C9447000C9447006D
S11300100C9447000C9447000C9447000C94470040
S11300200C9447000C9447000C9447000C94470030
S11300300C9447000C9485010C9447000C944700E1
S11300400C9447000C9447000C9447000C94470010
S11300500C94470011241FBECFE5D8E0DEBFCDBF0E
S113006012E0A0E6B0E0E2E3FAE002C005900D92EF
S1130070A437B107D9F722E0A4E7B2E001C01D928A
S1130080AE37B207E1F70E9415030C9417050C94E0
S1130090000080B580BD89B18C6089B98AB188615E
S11300A08AB980B58F7B80BD80B5866880BD82E0CB
S11300B08BB9579A08955D9BFECF8CB90895CF9361
S11300C0DF93EC018881882331F021960E945B0044
S11300D089918111FBCFDF91CF9108958FE088BB87
S11300E0089510927D0210927C0280E090E040E13D
S11300F050E09A0102C0220F331F8A95E2F727BB12
S113010010927B0210927A02000026B380917A0248
S113011090917B0230E0082E02C0359527950A9411
S1130120E2F720FD0FC0880F991F880F991F805A8E
S11301309F4F20917C0230917D02FC01E20FF31F5E
S113014080810895019690937B0280937A020497AC
S1130150DCF280917C0290917D02019690937D0265
S113016080937C028430910524F28FEF0895939A52
S113017000C093980895CF93C82F662311F0A89ACE
S113018001C0A89892988C9A8D9A8E9A8F9A979873
S1130190969895989498CC230CF4979AC6FD969AC1
S11301A0C5FD959AC4FD949A0E94B70097989698B5
S11301B095989498C3FD979AC2FD969AC1FD959A15
S11301C0C0FD949A0E94B700949A959A969A979A29
S11301D0CF910895882311F0A89A01C0A898929A03
S11301E08C988D988E988F98939A00C0849B02C0A7
S11301F080E101C080E08599806286998064879956
S11302008068939800C0939A00C08499816085990E
S1130210826086998460879988609398089580E0C5
S11302200E94EA008823DCF300C080E00E94EA0018
S11302300895CF93C82F0E940F0160E08C2F0E9475
S1130240BB00CF91089581E00E9419010895CF93D6
S1130250C82F0E940F01CA3049F4803410F080E0A6
S113026001C080E480580E94190113C0803129F430
S113027060E080EC0E94BB0006C0803521F460E0A1
S113028080E80E94BB000E940F0161E08C2F0E9455
S1130290BB00CF9108951F93CF93DF93182FA09A9B
S11302A08A9A8B9A8C9A8D9A8E9A8F9A80EA9FE07A
S11302B00197F1F7959A949A0E94B70080EE94E022
S11302C00197F1F70E94B700C0E1D0E0CE01019799
S11302D0F1F70E94B700CE010197F1F794980E94BC
S11302E0B7002197F1F788E20E94190188E00E9483
S11302F019010E94230186E00E941901812F0E94A6
S11303001901DF91CF911F9108951F920F920FB69B
S11303100F9211248F938CB1813421F481E0809366
S1130320790221C0823441F4809179028823D9F082
S113033081E08093780217C0833421F481E08093B4
S1130340770211C0843421F481E0809376020BC0DB
S1130350853421F481E08093750205C0863419F454
S113036081E0809374028F910F900FBE0F901F90C5
S11303701895CF93DF9300D000D0CDB7DEB74AE015
S113038050E0BE016F5F7F4F0E94D704BE016F5FD4
S11303907F4F80E790E00E94CC040E945F000F90A2
S11303A00F900F900F90DF91CF9108950E947100EC
S11303B0813421F481E0809379020895823439F400
S11303C0809179028130C9F4809178020895833450
S11303D019F4809177020895843421F481E08093A4
S11303E076020895853421F481E08093750208959E
S11303F0863419F481E080937402089584B7806888
S113040084BF84B7806884BF2FE78AE196E02150D7
S113041080409040E1F700C0000078940E948E0470
S11304200E94B1040E9467040E946E000E94490069
S11304308CE00E944B0108950E949F0421E030E06B
S1130440892B11F020E030E0C9010895CF93DF93A8
S1130450EC010E9423018881882361F021960E9487
S113046027018FE097E20197F1F700C0000089911E
S11304708111F5CFDF91CF91089581E090E00E9442
S11304809F04892BE1F482E090E00E949F04892B71
S1130490B1F484E790E00E94260281E090E00E949B
S11304A06B0481E090E00E949F04892B31F482E088
S11304B090E00E949F04892BA1F30E947604089582
S11304C080917902882359F183E990E00E945F00CA
S11304D088E990E00E9426020EC00E94D601809115
S11304E07802882341F0109279021092780287EB07
S11304F090E00E945F00809179028111EECF8CEB35
S113050090E00E9426022FED83E994E02150804080
S11305109040E1F700C0000081E090E0089580E0A1
S113052090E00895809176028823C9F010927602B3
S113053089EC90E00E945F008EEC90E00E9426021D
S11305402FE78AE196E0215080409040E1F700C017
S113055000000E94D601809176028111E7CF0895B0
S113056080917502882371F1109275028CED90E0F0
S11305700E945F0081EE90E00E9426020E94AD047A
S1130580883E934024F481E090E00E947A040E9423
S1130590AD04893E23E0920784F00E94850481EF34
S11305A090E00E9426028FED93E924E08150904070
S11305B02040E1F700C0000008950E94B9010E94A4
S11305C0D601E5CF089580917402882369F11092D1
S11305D0740286E091E00E945F008BE091E00E944B
S11305E026020E94AD048536910524F080E090E057
S11305F00E947A040E94AD048436910584F40E941A
S113060085048AE191E00E9426022FED83E994E0BB
S1130610215080409040E1F700C0000008950E94FE
S1130620B9010E94D601E6CF089510927902109282
S1130630780210927702109276021092750210924C
S113064074020E94FE018EE291E00E9426022FEDC8
S113065083E994E0215080409040E1F700C000001D
S11306608BE391E00E9426022FED83E994E0215070
S113067080409040E1F700C000000E943D020E94CB
S113068060020E94B0020E94E3020E94AD040E9434
S1130690B90181E090E00E941C02892BA9F486E54F
S11306A091E00E94260210C00E94D6010E946002BE
S11306B0892B51F081E090E00E941C02892B21F4E7
S11306C086E591E00E94260281E090E00E941C02EF
S11306D0892B51F32FE78AE196E021508040904026
S11306E0E1F700C000000E9492028DE691E00E94B2
S11306F0260281E090E00E946B040E94D60181E012
S113070090E00E949F04892BC1F30E94760480919B
S11307107702811129C081E891E00E94260283E0DA
S113072090E00E94B50481E090E00E947A042FE7F3
S113073089EA93E0215080409040E1F700C0000036
S11307400E9485042FEF84E39CE021508040904078
S1130750E1F700C0000083E090E00E94C00483EA57
S113076091E00E94260213C08CEB91E00E945F008E
S113077081EC91E00E942602109277022FED83E92A
S113078094E0215080409040E1F700C0000081E0F7
S113079090E00E946B042FE789EA93E021508040A7
S11307A09040E1F700C000000E94D60181E090E093
S11307B00E949F04892BC1F30E94760480917702E2
S11307C081111AC081EE91E00E94260284E090E03B
S11307D00E94B5042FEF84E39CE0215080409040B8
S11307E0E1F700C0000084E090E00E94C00483E0D0
S11307F092E00E94260213C08CEB91E00E945F00FD
S11308008DE192E00E942602109277022FED83E997
S113081094E0215080409040E1F700C0000081E066
S113082090E00E946B042FE789EA93E02150804016
S11308309040E1F700C000000E94D60181E090E002
S11308400E949F04892BC1F30E9476042FED83E953
S113085094E0215080409040E1F700C000008DE317
S113086092E00E9426022FED83E994E0215080401B
S11308709040E1F700C0000082E090E00E941C027A
S1130880892BA9F084E592E00E94260210C00E9400
S1130890D6010E946002892B51F082E090E00E9410
S11308A01C02892B21F084E592E00E94260282E05A
S11308B090E00E941C02892B51F72FE78AE196E011
S11308C0215080409040E1F700C00000D8CE84B3AE
S11308D08E6184BB08958130910519F4A99AAA9870
S11308E00895892B11F4A998AA9A089585B3897F4C
S11308F085BB08958130910519F4AB9AAC9808959D
S1130900892B11F4AB98AC9A089585B3877E85BB87
S1130910089580E487B987E886B908958AB3887F03
S11309208ABB0E948904089597B1987F8770892BA8
S113093087B9369A3699FECF84B195B1089529B313
S113094041E050E0BA0102C0660F771F8A95E2F7D2
S1130950CB0130E082239323089580E00E94940425
S113096008958AB388618ABB08959BB321E030E07F
S113097002C0220F331F8A95E2F7292B2BBB08955F
S11309809BB321E030E002C0220F331F8A95E2F7C7
S1130990209529232BBB0895FB01DC010D90002039
S11309A0E9F7119701900D920020E1F7089545327F
S11309B0510520F4423010F00C94E204FB01108243
S11309C0CB010895BB274A3031F4992322F4BDE2C8
S11309D0909581959F4F0C94EE04BB27FB015527FE
S11309E0AA27880F991FAA1FA41710F0A41B839588
S11309F05051B9F7A05DAA3308F0A95DA1930097FF
S1130A0079F7B111B1931192CB010C940705DC0174
S1130A10FC01672F71917723E1F7329704C07C9131
S1130A206D9370836291AE17BF07C8F30895F8946D
S1050A30FFCFF2
S1130A32414243304445463030303030303030303B
S1130A424C4C3A00496E697469616C697A696E67E3
S1130A522E2E2E0A506C65617365207761697420AD
S1130A623A290052523A410049276D20736C656558
S1130A7270696E67205E5F5E0A446F6E277420643D
S1130A826973747572620052523A420049276D20AA
S1130A926177616B65203A440052523A44005761CF
S1130AA26974696E672E2E2E203A290052523A45F5
S1130AB200526566696C6C696E672E2E2E203A2987
S1130AC200526566696C6C696E670A646F6E652EA6
S1130AD22E2E203A290052523A4600447261696E1F
S1130AE2696E672E2E2E203A2900447261696E695E
S1130AF26E670A646F6E652E2E2E203A29002057E7
S1130B02656C636F6D65205E2E5E0020202041754A
S1130B12746F6D617465640A2020204375702057D8
S1130B22617368657200506C6561736520696E73E8
S1130B326572740A6120637570203A290050726FDD
S1130B42636573732073746172746564210A3A294C
S1130B5200436C65616E696E672070726F636573C2
S1130B62730A6F6E6520696E2070726F67726573A7
S1130B7273210050726F63657373206F6E65636FC8
S1130B826D706C6574656421203A290052523A43AF
S1130B9200536B697070656420636C65616E696E85
S1130BA2670A70726F63657373206F6E65203A4FC4
S1130BB200436C65616E696E672070726F63657362
S1130BC2730A74776F20696E2070726F677265732F
S1130BD273210050726F636573732074776F0A63B5
S1130BE26F6D706C6574656421203A2900536B69DA
S1130BF27070656420636C65616E696E670A7072F9
S1130C026F636573732074776F203A4F00436C658A
S1130C12616E696E670A636F6D706C6574656421D9
S1130C22203A2900506C656173652072656D6F7698
S1130C32650A6375702066726F6D20747261792023
S1070C423A29000047
S9030000FC
